{
  "_format": "hh-sol-artifact-1",
  "contractName": "CrimeReport",
  "sourceName": "contracts/CrimeReport.sol",
  "abi": [
    {
      "inputs": [],
      "stateMutability": "nonpayable",
      "type": "constructor"
    },
    {
      "anonymous": false,
      "inputs": [
        {
          "indexed": true,
          "internalType": "uint256",
          "name": "id",
          "type": "uint256"
        },
        {
          "indexed": false,
          "internalType": "string",
          "name": "status",
          "type": "string"
        }
      ],
      "name": "ReportStatusUpdated",
      "type": "event"
    },
    {
      "anonymous": false,
      "inputs": [
        {
          "indexed": true,
          "internalType": "uint256",
          "name": "id",
          "type": "uint256"
        },
        {
          "indexed": true,
          "internalType": "address",
          "name": "reporter",
          "type": "address"
        },
        {
          "indexed": false,
          "internalType": "string",
          "name": "title",
          "type": "string"
        }
      ],
      "name": "ReportSubmitted",
      "type": "event"
    },
    {
      "inputs": [
        {
          "internalType": "uint256",
          "name": "_reportId",
          "type": "uint256"
        }
      ],
      "name": "getReport",
      "outputs": [
        {
          "internalType": "uint256",
          "name": "id",
          "type": "uint256"
        },
        {
          "internalType": "string",
          "name": "title",
          "type": "string"
        },
        {
          "internalType": "string",
          "name": "reportType",
          "type": "string"
        },
        {
          "internalType": "string",
          "name": "description",
          "type": "string"
        },
        {
          "internalType": "string",
          "name": "location",
          "type": "string"
        },
        {
          "internalType": "string[]",
          "name": "evidenceHashes",
          "type": "string[]"
        },
        {
          "internalType": "uint256",
          "name": "timestamp",
          "type": "uint256"
        },
        {
          "internalType": "address",
          "name": "reporter",
          "type": "address"
        },
        {
          "internalType": "string",
          "name": "status",
          "type": "string"
        }
      ],
      "stateMutability": "view",
      "type": "function"
    },
    {
      "inputs": [],
      "name": "getReportCount",
      "outputs": [
        {
          "internalType": "uint256",
          "name": "",
          "type": "uint256"
        }
      ],
      "stateMutability": "view",
      "type": "function"
    },
    {
      "inputs": [
        {
          "internalType": "address",
          "name": "_user",
          "type": "address"
        }
      ],
      "name": "getUserReports",
      "outputs": [
        {
          "internalType": "uint256[]",
          "name": "",
          "type": "uint256[]"
        }
      ],
      "stateMutability": "view",
      "type": "function"
    },
    {
      "inputs": [
        {
          "internalType": "uint256",
          "name": "",
          "type": "uint256"
        }
      ],
      "name": "reports",
      "outputs": [
        {
          "internalType": "uint256",
          "name": "id",
          "type": "uint256"
        },
        {
          "internalType": "string",
          "name": "title",
          "type": "string"
        },
        {
          "internalType": "string",
          "name": "reportType",
          "type": "string"
        },
        {
          "internalType": "string",
          "name": "description",
          "type": "string"
        },
        {
          "internalType": "string",
          "name": "location",
          "type": "string"
        },
        {
          "internalType": "uint256",
          "name": "timestamp",
          "type": "uint256"
        },
        {
          "internalType": "address",
          "name": "reporter",
          "type": "address"
        },
        {
          "internalType": "string",
          "name": "status",
          "type": "string"
        }
      ],
      "stateMutability": "view",
      "type": "function"
    },
    {
      "inputs": [
        {
          "internalType": "string",
          "name": "_title",
          "type": "string"
        },
        {
          "internalType": "string",
          "name": "_reportType",
          "type": "string"
        },
        {
          "internalType": "string",
          "name": "_description",
          "type": "string"
        },
        {
          "internalType": "string",
          "name": "_location",
          "type": "string"
        },
        {
          "internalType": "string[]",
          "name": "_evidenceHashes",
          "type": "string[]"
        },
        {
          "internalType": "uint256",
          "name": "_timestamp",
          "type": "uint256"
        }
      ],
      "name": "submitReport",
      "outputs": [
        {
          "internalType": "uint256",
          "name": "",
          "type": "uint256"
        }
      ],
      "stateMutability": "nonpayable",
      "type": "function"
    },
    {
      "inputs": [
        {
          "internalType": "uint256",
          "name": "_reportId",
          "type": "uint256"
        },
        {
          "internalType": "string",
          "name": "_status",
          "type": "string"
        }
      ],
      "name": "updateReportStatus",
      "outputs": [],
      "stateMutability": "nonpayable",
      "type": "function"
    },
    {
      "inputs": [
        {
          "internalType": "address",
          "name": "",
          "type": "address"
        },
        {
          "internalType": "uint256",
          "name": "",
          "type": "uint256"
        }
      ],
      "name": "userReports",
      "outputs": [
        {
          "internalType": "uint256",
          "name": "",
          "type": "uint256"
        }
      ],
      "stateMutability": "view",
      "type": "function"
    }
  ],
  "bytecode": "0x608060405234801561001057600080fd5b5060006002556113d4806100256000396000f3fe608060405234801561001057600080fd5b506004361061007d5760003560e01c80635b746d211161005b5780635b746d21146100e657806370a05afc146100fb578063c942adf71461011b578063cad9642b146101425761007d565b80630f5c3529146100825780634e7f9b19146100ab5780635a345e46146100d3575b600080fd5b610095610090366004610f4b565b61014a565b6040516100a29190611182565b60405180910390f35b6100be6100b936600461101f565b610362565b6040516100a29998979695949392919061118b565b6100956100e1366004610f22565b610808565b6100f96100f4366004611037565b610839565b005b61010e610109366004610f01565b610939565b6040516100a291906110d4565b61012e61012936600461101f565b6109a6565b6040516100a298979695949392919061126d565b610095610cb0565b600280546000918291908261015e83611361565b90915550604080516101208101825282815260208082018c81528284018c9052606083018b9052608083018a905260a0830189905260c083018890523360e08401528351808501909452600784526650656e64696e6760c81b8483015261010083019390935260008054600181018255908052825160099091027f290decd9548b62a8d60345a988386fc84ba6bc95484008f6362f93160ef3e56381019182559351805195965092948594919361023b937f290decd9548b62a8d60345a988386fc84ba6bc95484008f6362f93160ef3e564909301920190610cb6565b5060408201518051610257916002840191602090910190610cb6565b5060608201518051610273916003840191602090910190610cb6565b506080820151805161028f916004840191602090910190610cb6565b5060a082015180516102ab916005840191602090910190610d3a565b5060c0820151600682015560e08201516007820180546001600160a01b0319166001600160a01b0390921691909117905561010082015180516102f8916008840191602090910190610cb6565b50503360008181526001602081815260408084208054938401815584529220018590555190915083907f01214c9a229f148da8dd64c1f59a99aea3a21e8ecae2e65b5399ac1eaa27fe4d9061034e908d90611118565b60405180910390a350979650505050505050565b6000606080606080606060008060606000805490508a1061039e5760405162461bcd60e51b81526004016103959061112b565b60405180910390fd5b6000808b815481106103c057634e487b7160e01b600052603260045260246000fd5b906000526020600020906009020160405180610120016040529081600082015481526020016001820180546103f490611326565b80601f016020809104026020016040519081016040528092919081815260200182805461042090611326565b801561046d5780601f106104425761010080835404028352916020019161046d565b820191906000526020600020905b81548152906001019060200180831161045057829003601f168201915b5050505050815260200160028201805461048690611326565b80601f01602080910402602001604051908101604052809291908181526020018280546104b290611326565b80156104ff5780601f106104d4576101008083540402835291602001916104ff565b820191906000526020600020905b8154815290600101906020018083116104e257829003601f168201915b5050505050815260200160038201805461051890611326565b80601f016020809104026020016040519081016040528092919081815260200182805461054490611326565b80156105915780601f1061056657610100808354040283529160200191610591565b820191906000526020600020905b81548152906001019060200180831161057457829003601f168201915b505050505081526020016004820180546105aa90611326565b80601f01602080910402602001604051908101604052809291908181526020018280546105d690611326565b80156106235780601f106105f857610100808354040283529160200191610623565b820191906000526020600020905b81548152906001019060200180831161060657829003601f168201915b5050505050815260200160058201805480602002602001604051908101604052809291908181526020016000905b828210156106fd57838290600052602060002001805461067090611326565b80601f016020809104026020016040519081016040528092919081815260200182805461069c90611326565b80156106e95780601f106106be576101008083540402835291602001916106e9565b820191906000526020600020905b8154815290600101906020018083116106cc57829003601f168201915b505050505081526020019060010190610651565b505050908252506006820154602082015260078201546001600160a01b0316604082015260088201805460609092019161073690611326565b80601f016020809104026020016040519081016040528092919081815260200182805461076290611326565b80156107af5780601f10610784576101008083540402835291602001916107af565b820191906000526020600020905b81548152906001019060200180831161079257829003601f168201915b5050505050815250509050806000015181602001518260400151836060015184608001518560a001518660c001518760e00151886101000151995099509950995099509950995099509950509193959799909294969850565b6001602052816000526040600020818154811061082457600080fd5b90600052602060002001600091509150505481565b600054821061085a5760405162461bcd60e51b81526004016103959061112b565b6000828154811061087b57634e487b7160e01b600052603260045260246000fd5b60009182526020909120600990910201600701546001600160a01b031633146108b65760405162461bcd60e51b81526004016103959061115a565b80600083815481106108d857634e487b7160e01b600052603260045260246000fd5b906000526020600020906009020160080190805190602001906108fc929190610cb6565b50817f8e4fd37f01669486af1204dbee7b54939dfff10ed346518794311da23a7626bc8260405161092d9190611118565b60405180910390a25050565b6001600160a01b03811660009081526001602090815260409182902080548351818402810184019094528084526060939283018282801561099957602002820191906000526020600020905b815481526020019060010190808311610985575b505050505090505b919050565b600081815481106109b657600080fd5b600091825260209091206009909102018054600182018054919350906109db90611326565b80601f0160208091040260200160405190810160405280929190818152602001828054610a0790611326565b8015610a545780601f10610a2957610100808354040283529160200191610a54565b820191906000526020600020905b815481529060010190602001808311610a3757829003601f168201915b505050505090806002018054610a6990611326565b80601f0160208091040260200160405190810160405280929190818152602001828054610a9590611326565b8015610ae25780601f10610ab757610100808354040283529160200191610ae2565b820191906000526020600020905b815481529060010190602001808311610ac557829003601f168201915b505050505090806003018054610af790611326565b80601f0160208091040260200160405190810160405280929190818152602001828054610b2390611326565b8015610b705780601f10610b4557610100808354040283529160200191610b70565b820191906000526020600020905b815481529060010190602001808311610b5357829003601f168201915b505050505090806004018054610b8590611326565b80601f0160208091040260200160405190810160405280929190818152602001828054610bb190611326565b8015610bfe5780601f10610bd357610100808354040283529160200191610bfe565b820191906000526020600020905b815481529060010190602001808311610be157829003601f168201915b5050505060068301546007840154600885018054949592946001600160a01b03909216935090610c2d90611326565b80601f0160208091040260200160405190810160405280929190818152602001828054610c5990611326565b8015610ca65780601f10610c7b57610100808354040283529160200191610ca6565b820191906000526020600020905b815481529060010190602001808311610c8957829003601f168201915b5050505050905088565b60005490565b828054610cc290611326565b90600052602060002090601f016020900481019282610ce45760008555610d2a565b82601f10610cfd57805160ff1916838001178555610d2a565b82800160010185558215610d2a579182015b82811115610d2a578251825591602001919060010190610d0f565b50610d36929150610d93565b5090565b828054828255906000526020600020908101928215610d87579160200282015b82811115610d875782518051610d77918491602090910190610cb6565b5091602001919060010190610d5a565b50610d36929150610da8565b5b80821115610d365760008155600101610d94565b80821115610d36576000610dbc8282610dc5565b50600101610da8565b508054610dd190611326565b6000825580601f10610de35750610e01565b601f016020900490600052602060002090810190610e019190610d93565b50565b80356001600160a01b03811681146109a157600080fd5b600082601f830112610e2b578081fd5b8135602067ffffffffffffffff821115610e4757610e47611388565b610e5481828402016112fc565b82815281810190858301855b85811015610e8957610e77898684358b0101610e96565b84529284019290840190600101610e60565b5090979650505050505050565b600082601f830112610ea6578081fd5b813567ffffffffffffffff811115610ec057610ec0611388565b610ed3601f8201601f19166020016112fc565b818152846020838601011115610ee7578283fd5b816020850160208301379081016020019190915292915050565b600060208284031215610f12578081fd5b610f1b82610e04565b9392505050565b60008060408385031215610f34578081fd5b610f3d83610e04565b946020939093013593505050565b60008060008060008060c08789031215610f63578182fd5b863567ffffffffffffffff80821115610f7a578384fd5b610f868a838b01610e96565b97506020890135915080821115610f9b578384fd5b610fa78a838b01610e96565b96506040890135915080821115610fbc578384fd5b610fc88a838b01610e96565b95506060890135915080821115610fdd578384fd5b610fe98a838b01610e96565b94506080890135915080821115610ffe578384fd5b5061100b89828a01610e1b565b92505060a087013590509295509295509295565b600060208284031215611030578081fd5b5035919050565b60008060408385031215611049578182fd5b82359150602083013567ffffffffffffffff811115611066578182fd5b61107285828601610e96565b9150509250929050565b6001600160a01b03169052565b60008151808452815b818110156110ae57602081850181015186830182015201611092565b818111156110bf5782602083870101525b50601f01601f19169290920160200192915050565b6020808252825182820181905260009190848201906040850190845b8181101561110c578351835292840192918401916001016110f0565b50909695505050505050565b600060208252610f1b6020830184611089565b60208082526015908201527414995c1bdc9d08191bd95cc81b9bdd08195e1a5cdd605a1b604082015260600190565b6020808252600e908201526d139bdd08185d5d1a1bdc9a5e995960921b604082015260600190565b90815260200190565b60006101208b8352602081818501526111a68285018d611089565b915083820360408501526111ba828c611089565b915083820360608501526111ce828b611089565b915083820360808501526111e2828a611089565b84810360a086015288518082529092508183019082810284018301838b01865b8381101561123057601f1987840301855261121e838351611089565b94860194925090850190600101611202565b50508960c088015261124560e088018a61107c565b8681036101008801526112588189611089565b955050505050509a9950505050505050505050565b60006101008a83528060208401526112878184018b611089565b9050828103604084015261129b818a611089565b905082810360608401526112af8189611089565b905082810360808401526112c38188611089565b60a084018790526001600160a01b03861660c085015283810360e085015290506112ed8185611089565b9b9a5050505050505050505050565b60405181810167ffffffffffffffff8111828210171561131e5761131e611388565b604052919050565b60028104600182168061133a57607f821691505b6020821081141561135b57634e487b7160e01b600052602260045260246000fd5b50919050565b600060001982141561138157634e487b7160e01b81526011600452602481fd5b5060010190565b634e487b7160e01b600052604160045260246000fdfea2646970667358221220b56555e7bcf948bc94030173667da679d06136808fd8618d05d407f11bcace9f64736f6c63430008000033",
  "linkReferences": {},
  "deployedLinkReferences": {}
}